:020000040000FA
:0300000002006D8E
:100013000203EB7582A2758307740012007FE490DC
:100023001000780379018002F0A3D8FCD9FA7A0290
:100033007B1090009D781179018015E493A3AD8224
:10004300AE838A828B83F0A3AA82AB838D828E8355
:10005300D8E9D9E775826B758306740012007F7542
:100063008294758307740012007F75D0007581BF79
:10007300751000751110759F00020021C09FF59F38
:10008300E473D09F22D083D082C09FE493C0E074F6
:100093000193C0E0740293F59F22FFFFFFFFC800A6
:1000A300000000E10000E8030000120088D804000B
:1000B3001200880005001200880805001200880E4F
:1000C30005001200881D05001200882E050012008D
:1000D300884A0500120088590500120088080700A5
:1000E3001200884307001200887B070012008883F0
:1000F3000700120088A005001200882306001200E2
:10010300883D0600120088570600120088FA030093
:100113001200880D040012008818040012008820C1
:100123000400120088CD0400120088D304001200DA
:1001330088160000E4936670130874019366700CCC
:1001430008740293667005087403936622C3E493EC
:100153009608740193960874029396087403939611
:1001630022E026F608A3E036F608A3E036F608A355
:10017300E036F622E0FAA3E0FBA3E0FCA3E0FD22D5
:10018300600D08C6A2E713C618C613C6D5E0F3224E
:10019300700422600D18C6C333C608C633C6D5E043
:1001A300F418222510C582C0E0E51134FFC583C0D1
:1001B300E0E510C3958224F810AF0885831185828A
:1001C300108008858311858210D2AFCEF0A3E5207D
:1001D300F0A37808E608F0A3DEFAEFF0A3E58124A4
:1001E300FAF8E608F0A3E608F0A3E608F0A3080887
:1001F300E608F0A3E608F0A315811581D0E0FED050
:10020300E0F8158115811581E8C0E0EEC0E0228594
:100213001183851082E0A3FEE0A3F5207808E0A314
:10022300F608DFFAE0A3FFE0A3C0E0E0A3C0E0E04C
:10023300A3C0E0E0A3C0E0E0A3C0E010AF08858264
:10024300108583118008858210858311D2AFD083F6
:10025300D082020085C0D02510C582C0E0E51134EC
:10026300FFC583C0E0E510C3958224F310AF088572
:1002730083118582108008858311858210D2AFC8CF
:10028300F0A3E9F0A3EAF0A3EBF0A37908E709F000
:10029300A3D8FAECF0A3EDF0A3EEF0A3EFF0A3D014
:1002A300E0F0A3D0E0F0A3D0E0F0A3E520F0A3E5D5
:1002B300F0F0A322851183851082E0C0E0A3E0F96A
:1002C300A3E0FAA3E0FBA37808E0F608A3DFFAE0D3
:1002D300FCA3E0FDA3E0FEA3E0FFA3E0C0E0A3E0F6
:1002E300C0E0A3E0F5D0A3E0F520A3E0A3F5F01070
:1002F300AF0885831185821080088583118582105C
:10030300D2AFD082D083D0E0F8D0E032D083D08295
:10031300ECC0E0EDC0E0EEC0E0EFC0E0E493A3FC8E
:10032300E493A3FDE493A3FEE493A3FFEF4E4D4CAC
:10033300601512038BEC24FFFCED34FFFDEE34FF5C
:10034300FEEF34FFFF80E5E493A3FCE493A3FDE415
:1003530093A3FEE493A3FFEF4E4D4C60151203C825
:10036300EC24FFFCED34FFFDEE34FFFEEF34FFFF22
:1003730080E5D0E0FFD0E0FED0E0FDD0E0FCE493E8
:10038300A3C0E0E493C0E022C0E0C0F088F0120113
:1003930050A8F04007120137A8F0701AA3A3A3A333
:1003A300120150A8F0A3A3A3A34013D0F0D0E0D030
:1003B300E0D0E0020375A3A3A3A3A3A3A3A3A3A3D2
:1003C300D0F0D0E022C0E0C0F088F0120137A8F0EE
:1003D300A3A3A3A3700BD0F0D0E0D0E0D0E002033E
:1003E30075A3A3D0F0D0E022C0E074F21202581239
:1003F30001077F010202B7740169700543F10180AF
:1004030006E9700385F1F102008574016970034305
:100413008680020085E5865402F902008574F41291
:1004230001A68A088B098C0A8D0B780812030F002A
:100433000000000B000000600900007E04C01200F1
:10044300008604802500008E0440380000930400D9
:100453004B00009B0480700000A00400960000A8DD
:100463000400E10000AD04002C0100B50400C2014A
:1004730000BA0400840300C204C80475C23B75C5F6
:1004830006804275C23B75C507803A75C23B80033F
:1004930075C2D875C508802D75C23B800375C2D857
:1004A30075C509802075C23B800375C2D875C50A1E
:1004B300801375C23B800375C2D875C50B80067562
:1004C300C2D875C50C7F04020212E5C1F90200858A
:1004D30089C1020085C008C009E9FAC39408501411
:1004E300750801750900EA7808120193E50842F2DC
:1004F3007901800279FFD009D008020085E5B45460
:1005030080F902008543B44002008553B4EF53B42D
:10051300DFE9C454F042B402008553B5BF53B57F3D
:10052300E9C4333354C042B5020085C082C083534B
:10053300B5EF53B5DFE9C454F042B5E9901000F0CC
:10054300D083D08202008553B5FE53B5FD53B5FB6E
:1005530053B5F7E980D074F61201A6E5BBF9E5BA05
:10056300FAE9FB901000E0600814600D146012803B
:10057300188A088B09740880168A088B0974068008
:100583000E8A088B09740480068A088B0974027822
:1005930008120183AA08AB097F02020212C008C035
:1005A30009E9C394085020750801750900E9780822
:1005B300120193E508F874016A7005E842F38007B5
:1005C300EA7004E8F452F374F829F8C3940850204D
:1005D300750801750900E87808120193E508F874B5
:1005E300016A7005E842F48007EA7004E8F452F403
:1005F30074F029F8C394055020750801750900E8C3
:100603007808120193E508F874016A7005E842F569
:100613008007EA7004E8F452F5D009D00802008597
:10062300E970048AF3801074086970048AF48007FF
:1006330074106970028AF5020085E970048AFD80EE
:100643001074086970048AFE800774106970028A46
:10065300FF020085C082C083120125901001E004CF
:10066300F0D083D08202008553C6BF53C6FC7A0004
:1006730079081200FB7AFF7908120101790112004F
:10068300EF79011200E97A0179021200F57A017912
:10069300031200F5790012010D7901120113901074
:1006A3000A12017712011F79031200BF79021200A7
:1006B300C579001200CB7A0179061200F57906128A
:1006C30000AD79061200D1801DEAF8EBF9E8FE12BD
:1006D300012B120119E960FAEEF912012B90100EA9
:1006E3001201771200E31200B91200B3E960FA12A3
:1006F30000D7C3EB9400A2D265D03350CCC3E49AA5
:10070300F8E49B80C774F01201A68A088B098C0A4F
:100713008D0B800900000000000000000085080C1C
:1007230085090D850A0E850B0F90100278081201BA
:1007330064E50C450D450E450F70D97F0802021282
:1007430074F01201A68A088B098C0A8D0B8009901C
:1007530010061201771200DD85080C85090D850A44
:100763000E850B0F9010027808120164E50C450DFD
:10077300450E450F70D980C3E9A2E092AF02008510
:100783007401697004D2AA8005E97002C2AA02004A
:1007930085C082C083120131D083D082020085805C
:0107A300FE57
:040000050000006D8A
:00000001FF
