:1000000002004A758287758305740012005C7A00CD
:100010007B0F90007A780D79018015E493A3AD826F
:10002000AE838A828B83F0A3AA82AB838D828E8378
:10003000D8E9D9E7758250758305740012005C75A4
:100040008279758305740012005C75D0007581BFDC
:1000500075100075110F759F0002000EC09FF59F6F
:10006000E473D09F22D083D082C09FE493C0E07419
:100070000193C0E0740293F59F22FFFFFFFFC800C9
:100080000000F4010000120065EC04001200653B62
:1000900005001200655E0400120065A50400120050
:1000A00065A001001200654C0200120065F8020014
:1000B000120065B30300120065030000E026F60895
:1000C000A3E036F608A3E036F608A3E036F622E011
:1000D000FAA3E0FBA3E0FCA3E0FD22700422600D84
:1000E00018C6C333C608C633C6D5E0F41822251097
:1000F000C582C0E0E51134FFC583C0E0E510C395BB
:100100008224F810AF0885831185821080088583CA
:1001100011858210D2AFCEF0A3E520F0A37808E6D7
:1001200008F0A3DEFAEFF0A3E58124FAF8E608F080
:10013000A3E608F0A3E608F0A30808E608F0A3E6A3
:1001400008F0A315811581D0E0FED0E0F8158115E7
:10015000811581E8C0E0EEC0E02285118385108220
:10016000E0A3FEE0A3F5207808E0A3F608DFFAE0BC
:10017000A3FFE0A3C0E0E0A3C0E0E0A3C0E0E0A3F1
:10018000C0E0E0A3C0E010AF088582108583118035
:1001900008858210858311D2AFD083D0820200629D
:1001A000C008C009E9C39408502B74016A70127525
:1001B0000801750900E978081200DBE50842F380C0
:1001C00014EA7011750801750900E978081200DB5E
:1001D000E508F452F3E9C39408C39408502F74015E
:1001E0006A701475080175090074F82978081200FE
:1001F000DBE50842F48016EA701375080175090002
:1002000074F82978081200DBE508F452F4E9C39485
:1002100010C39405502F74016A7014750801750994
:100220000074F02978081200DBE50842F58016EA30
:10023000701375080175090074F02978081200DB45
:10024000E508F452F5D009D008020062C008C009E0
:10025000E9C39408502B74016A701275080175097E
:1002600000E978081200DBE50842FD8014EA70110D
:10027000750801750900E978081200DBE508F452F9
:10028000FDE9C39408C39408502F74016A70147573
:10029000080175090074F82978081200DBE50842A6
:1002A000FE8016EA701375080175090074F8297844
:1002B000081200DBE508F452FEE9C39410C394056C
:1002C000502F74016A701475080175090074F029C3
:1002D00078081200DBE50842FF8016EA7013750803
:1002E0000175090074F02978081200DBE508F45262
:1002F000FFD009D008020062C008C00974016A700A
:100300004EE9C394085010750801750900E9780892
:100310001200DBE508428FE9C39408C39408501229
:1003200075080175090074F82978081200DBE508E2
:1003300042F6E9C39410C39405507175080175091C
:100340000074F02978081200DBE50842F7805D743C
:10035000016A605853F7DF53F7BF53F77FE9C3943F
:10036000085011750801750900E978081200DBE5ED
:1003700008F4528FE9C39408C39408501375080118
:1003800075090074F82978081200DBE508F452F6C4
:10039000E9C39410C39405501375080175090074DE
:1003A000F02978081200DBE508F452F7D009D008EC
:1003B000020062C008C009EA604EE9C39408501008
:1003C000750801750900E978081200DBE50842802C
:1003D000E9C39408C39408501275080175090074A4
:1003E000F82978081200DBE5084290E9C39410C3AD
:1003F0009405506375080175090074F02978081296
:1004000000DBE50842A0804FE9C39408501175084D
:1004100001750900E978081200DBE508F45280E96B
:10042000C39408C39408501375080175090074F843
:100430002978081200DBE508F45290E9C39410C350
:100440009405501375080175090074F02978081295
:1004500000DBE508F452A0D009D00802006274F075
:100460001200EE8A088B098C0A8D0B8009000000AF
:1004700000000000000085080C85090D850A0E8526
:100480000B0F850C08850D09850E0A850F0B900F43
:100490000078081200BCE50C450D450E450F70CDE7
:1004A0007F0802015A74F01200EE8A088B098C0A48
:1004B0008D0B8009900F041200CF12009285080C5A
:1004C00085090D850A0E850B0F850C08850D09859C
:1004D0000E0A850F0B900F0078081200BCE50C4542
:1004E0000D450E450F70CD7F0802015A74F71200BA
:1004F000EEE9FEEAFF7A00EEF912009E74016F60E9
:100500000A74026F600574036F70217A00EEF912AD
:1005100000A474016F70077A01EEF91200AA740248
:100520006F70137A00EEF91200AA800AEF70077A52
:1005300001EEF91200A47F0102015A74F71200EED5
:10054000E9FFEAFEEEFAEFF91200B07F0102015A6C
:100550007A0079091200867A01790912008C900FCD
:10056000081200CF1200987A00790912008C900FBF
:10057000081200CF12009880DEC082C0831200B63D
:09058000D083D08202006280FEEB
:00004A01B5
:00000001FF
